:020000021000EC
:10800000004000208D930100D5930100D79301001B
:108010000000000000000000000000000000000060
:10802000000000000000000000000000D9930100E3
:108030000000000000000000DB930100DD93010060
:10804000DF930100DF930100DF930100DF93010064
:10805000DF93010000000000DF930100DF930100C7
:10806000DF930100DF930100DF930100DF93010044
:10807000DF930100DF930100DF930100DF93010034
:10808000DF930100DF930100DF930100DF93010024
:10809000DF930100DF930100DF930100DF93010014
:1080A000DF930100DF9301000000000000000000EA
:1080B00000000000000000000000000000000000C0
:1080C00010B5064C2378002B07D1054B002B02D0AE
:1080D000044800E000BF0123237010BD6820002089
:1080E0000000000064A30100084B10B5002B03D072
:1080F0000749084800E000BF07480368002B00D18B
:1081000010BD064B002BFBD09847F9E7000000009C
:108110006C20002064A30100682000200000000003
:10812000164B002B00D1144B9D46402292029A1A06
:10813000924600218B460F461348144A121A00F04B
:1081400065F80F4B002B00D098470E4B002B00D04A
:1081500098470020002104000D000D48002802D09F
:108160000C4800E000BF00F02DF82000290000F0CE
:10817000AFF900F011F8C0460000080000400020F0
:10818000000000000000000068200020882000207F
:108190000000000000000000084B10B50400002B98
:1081A00002D0002100E000BF054B1868836A002B55
:1081B00000D09847200000F031F8C04600000000D1
:1081C00058A2010070B500260C4D0D4C641BA41084
:1081D000A64209D1002602F033F80A4D0A4C641B6E
:1081E000A410A64205D170BDB300EB5898470136E4
:1081F000EEE7B300EB5898470136F2E76020002025
:1082000060200020602000206420002003008218ED
:10821000934200D1704719700133F9E7FEE7C04679
:108220001D4B1B78012B00D070471C4B1B681B0794
:10823000FAD1F0221A4B1B68134018D1194B1B6856
:1082400013421CD0154B1B681B07EDD1F022144BB9
:108250001B681340402BE7D1124B1B681342E3D13C
:10826000C12380220121DB00D205D150DCE7102B95
:1082700001D0302BEAD10B4B1B681342E6D10A4ADE
:108280000A4B1A6080220A4B12021A60024B1B78BA
:10829000012BD7D0C8E7C046E00F00F0E40F00F094
:1082A000E80F00F0EC0F00F0DFFF07C0040500400E
:1082B000186C004030B585B06A460B4B694631CB2F
:1082C00031C20A4C1B68200013600023002200F01A
:1082D000E9FC002803D00022002100F015F920005D
:1082E00000F0C4FD05B030BD5CA201006CA201002D
:1082F0006B2300B585B003AA137000236821537067
:1083000006480093023300F0DFFD002803D000226E
:10831000002100F0F9F805B000BDC0466CA20100D4
:108320000F22752370B584B06A44137000230F4D7B
:10833000009306000133682128000E2400F0C4FDDC
:108340006C44002807D00022002100F0DDF82378DB
:10835000337004B070BD0090012322006821280012
:1083600000F0BAFE0028F2D0EDE7C0466CA2010092
:10837000F0B5C64615000F223B2300B586B06A440F
:108380001370174B0700984600230E0000936821D6
:108390000133404600F098FD04AC002816D00022BE
:1083A000002100F0B1F822786378120213433B8079
:1083B000A278E378120213432279338063791202A0
:1083C00013432B8006B004BC9046F0BD00900623FA
:1083D00022006821404600F07FFE0028E3D0DEE75F
:1083E0006CA20100F0B5C64615000F22432300B56C
:1083F00086B06A441370174B0700984600230E009E
:10840000009368210133404600F05EFD04AC002873
:1084100016D00022002100F077F82278637812024B
:1084200013433B80A278E37812021343227933800E
:108430006379120213432B8006B004BC9046F0BD52
:108440000090062322006821404600F045FE0028E7
:10845000E3D0DEE76CA201000B22432370B584B0A9
:108460006A4413700023164E0093050001336821FF
:10847000300000F029FD03AC002816D000220021B6
:1084800000F042F8237860781B02184300B201F034
:10849000EBFD00220B4B01F0B3FA0B4A0B4B00F043
:1084A0009FFF2860696004B070BD00900223220025
:1084B0006821300000F010FE0028E3D0DEE7C0465F
:1084C0006CA2010000407540A4703D0AD7434240B1
:1084D00000B587B0FFF7EEFEFFF70AFF6B46D81C2A
:1084E000FFF71EFF6B4602AA991D01A8FFF740FF88
:1084F0000E220A206A44684403A9FFF773FF04A808
:10850000FFF7AAFFFEE7C046BFF34F8F024A034BB7
:10851000DA60BFF34F8FFEE70400FA0500ED00E0DC
:10852000F8B5CE464746A32180B54279414D530068
:108530009B180400DB000068EB18C900DA89415879
:1085400098688154013292B2DA819B89934203D8B0
:108550000CBC90469946F8BD802203202168920009
:108560008B58677983437E008B50F319DB00EB183F
:10857000DA899989013202388A4210D08022216832
:1085800092008B58F61903438B502023F600AD1947
:108590002A7C2B7423689B1801221A60D8E75A7929
:1085A000002AEBD182214900598220684250627929
:1085B00091009046204A8A58002A0CD0C222216895
:1085C00058699200885002225A61C12321689B0099
:1085D000CA506379984643465B0099464344DB00A2
:1085E000EB185B78154A9B009858154A9B589C4697
:1085F000002B10D00378042B0FD003000022083387
:1086000006E018000833190008390978042904D055
:1086100001326245F5D10220B0E74B464344DB000E
:108620004278EB185A704368002BF4D0200098472A
:108630000220A3E7842000208420002010A3010052
:10864000BCA201004279002153009B180F4ADB00B5
:10865000D3188222520010B55A820468A150427980
:108660000B4992005258002A0AD0C22201685C6964
:1086700092008C5002225A61C12301689B00CA50AB
:108680000123026813620268536110BD8420002038
:1086900084200020427953009B18034ADB00D31842
:1086A00001229A717047C04684200020F8B54746E1
:1086B000CE4680B5802247790168060003209200EB
:1086C0008B587C0083438B50344DE319DB00EB184F
:1086D000DA899989013202388A4213D080223168BE
:1086E00092008B58E41903438B502023E4002C198B
:1086F000227C237433689B1801221A600CBC9046BC
:108700009946F8BD5A79002AE8D182214900598258
:1087100030684250727991009046214A8A58002A66
:108720000CD0C222316858699200885002225A61E6
:10873000C12331689B00CA507379984643465B0059
:1087400099464344DB00EB185B78164A9B00985827
:10875000154A9B589C46002B10D00378042B0FD051
:1087600003000022083306E0180008331900083916
:108770000978042904D001326245F5D10220ADE721
:108780004B464344DB004278EB185A704368002B99
:10879000F4D0300098470220A0E7C0468420002093
:1087A0008420002010A30100BCA20100F8B54746B8
:1087B000CE4680B542793E4D53009B18DB00EB1846
:1087C000DA899B6801689A5C3A4B0400CA5080229F
:1087D00047790168032092008B587E0083438B50B9
:1087E000F319DB00EB18DA899989013202388A42E1
:1087F00013D08022216892008B58F61903438B50C6
:108800002023F600AD192A7C2B7423689B180122C3
:108810001A600CBC90469946F8BD5A79002AE8D1F6
:108820008221490059822068425062799100904625
:10883000214A8A58002A0CD0C22221685869920025
:10884000885002225A61C12321689B00CA50637973
:10885000984643465B0099464344DB00EB185B783F
:10886000164A9B009858164A9B589C46002B10D0DD
:108870000378042B0FD003000022083306E0180011
:108880000833190008390978042904D001326245F7
:10889000F5D10220ADE74B464344DB004278EB18AC
:1088A0005A704368002BF4D0200098470220A0E7BC
:1088B000842000201C0500008420002010A301005B
:1088C000BCA20100F8B5CE46474680B542794D4D71
:1088D00053009B18B122DB00EB180400D979006823
:1088E000D2008150012122681162842200215200AD
:1088F00019745A8220688150434A677991464946E3
:10890000BA008A58002A0BD0C22220685E69920001
:10891000865004225A61C12320689B00C2506779A7
:1089200080220326206892008358B3437E00835040
:10893000F319DB00EB189889DA89844601320120AB
:10894000624513D08022216892008B5803438B50DC
:10895000F319DB00ED1820232A7C2B7423689B1865
:1089600001221A600CBC90469946F8BD5A79002A3B
:10897000E8D10430FF30588221680A5049466279B4
:10898000904692008A58002A0CD0C2222168586969
:108990009200885002225A61C12321689B00CA506C
:1089A0006379984643465B0099464344DB00EB18E5
:1089B0005B78164A9B009858154A9B589C46002B9A
:1089C00010D00378042B0FD003000022083306E0F8
:1089D00018000833190008390978042904D0013235
:1089E0006245F5D10220ADE74B464344DB004278B7
:1089F000EB185A704368002BF4D0200098470220EF
:108A0000A0E7C046842000208420002010A301009D
:108A1000BCA20100F8B5CE46474680B54279524D1A
:108A200053009B18B122DB00EB180400D9790068D1
:108A3000D2008150012122681162082200211A749B
:108A40001532FF325A82206881506279474990007E
:108A50000858894600280BD0C22220685E6992001F
:108A6000865080225A61C12320689B00C2506279DF
:108A700053009B18DB00EB18DA899B6820689A5C2E
:108A80003B4B0326C25080222068920083586779AE
:108A9000B3437E008350F319DB00EB189889DA8921
:108AA000844601320120624513D080222168920061
:108AB0008B5803438B50F319DB00ED1820232A7CDD
:108AC0002B7423689B1801221A600CBC90469946AF
:108AD000F8BD5A79002AE8D10430FF305882216865
:108AE0000A5049466279904692008A58002A0CD072
:108AF000C222216858699200885002225A61C1231B
:108B000021689B00CA506379984643465B009946AA
:108B10004344DB00EB185B78164A9B009858164AD2
:108B20009B589C46002B10D00378042B0FD00300D9
:108B30000022083306E018000833190008390978C4
:108B4000042904D001326245F5D10220ADE74B463D
:108B50004344DB004278EB185A704368002BF4D092
:108B6000200098470220A0E78420002084200020D5
:108B70001C05000010A30100BCA20100F8B5CE4600
:108B8000474680B54279424D53009B18DB00EB18F5
:108B9000DA899989013292B20400DA81914203D8CC
:108BA0000CBC90469946F8BD9B6801689A5C394BAD
:108BB000CA50802247790168032092008B587E00BA
:108BC00083438B50F319DB00EB18DA899989013262
:108BD00002388A4210D08022216892008B58F61900
:108BE00003438B502023F600AD192A7C2B74236895
:108BF0009B1801221A60D3E75A79002AEBD182210F
:108C00004900598220684250627991009046224A78
:108C10008A58002A0CD0C2222168586992008850D4
:108C200002225A61C12321689B00CA506379984689
:108C300043465B0099464344DB00EB185B78174AD8
:108C40009B009858164A9B589C46002B10D00378DE
:108C5000042B0FD003000022083306E0180008336D
:108C6000190008390978042904D001326245F5D188
:108C70000220B0E74B464344DB004278EB185A70C1
:108C80004368002BF4D0200098470220A3E7C04699
:108C9000842000201C0500008420002010A3010077
:108CA000BCA20100F0B54F464646D646C0B5447951
:108CB000674F63001B19DB00FB5C06000820002BDC
:108CC00004D01CBC90469946A246F0BD002900D1B4
:108CD000B9E0604BA4001A519A46A0230A685E4886
:108CE000C132FF32DB059200D0504A68C132FF32F8
:108CF0009200D050012210000C68A040A124E40092
:108D000018514868A44682401A510A685348C13233
:108D1000FF329200D0504A68C132FF329200D050E8
:108D200004200138C046C046C046C046C046C046C2
:108D3000C046C046C046C046C046C046F1D1A22289
:108D4000D2009046464A0025012491464246486892
:108D50009A58C240144200D072E022000868824053
:108D600048461A5004200138C046C046C046C04696
:108D7000C046C046C046C046C046C046C046C046C3
:108D8000F1D122000868824060461A500420013860
:108D9000C046C046C046C046C046C046C046C046A3
:108DA000C046C046C046C046F1D10135092DCDD1DF
:108DB000486801231C00A02284402948D205145091
:108DC00004200138C046C046C046C046C046C04622
:108DD000C046C046C046C046C046C046F1D14868FD
:108DE0008340A120C0001350A0220B681A48C13351
:108DF000FF33D2059B0098504B68C133FF339B0073
:108E0000985032688868174BD050A12233680C689C
:108E1000D20048689C50124A98505046727993008C
:108E2000C358002B05D00420097B305600F05EFAB1
:108E3000727953009B180122DB00FA54002040E7AE
:108E4000002DB6D1D0E7084B2101591841E7C046A3
:108E500084200020842000200C0600000D06000065
:108E60000C0500002405000074A2010082220023EA
:108E7000016852008B50016804328B500168143233
:108E80008B50016808328B5043790D4A9B009B58E8
:108E9000002B05D08022C123016892009B00CA509C
:108EA000A02305220168DB00CA504179054A4B0026
:108EB0005B180221DB009954D31800225A707047C6
:108EC0008420002084200020F0B5DE4657464E4620
:108ED0004546E0B585B002930EAB91461A780191F4
:108EE00003924679834600F03FFA764A770092462D
:108EF000BC19E4005444A578EDB2002D4AD10120FC
:108F0000A070804600F038FA6B4619796E4AE1711C
:108F10001B89E581A3814B46A3606B461B7B637174
:108F2000434623710023A3715B46597948004318D7
:108F3000DB0053445B789B00D458644AD358904676
:108F40009C46002B31D02378002B10D02300002228
:108F500064468C4608330132A24225D019000833FA
:108F60001D00083D2D78002DF5D10C0061464318F9
:108F7000DB00627853445A706368002B15D0584662
:108F800098475B465979524B8A00D358002B13D02F
:108F9000002002E000F0F0F9112005B03CBC904642
:108FA0009946A246AB46F0BD6146494B8A00D3586C
:108FB000002BEDD1022407E0BB19DB0053441B79E1
:108FC00003244800002BF5D1BB190393DB00534465
:108FD0001A00123202925A469B46030001925B1815
:108FE000DB0053445B8A92259C46019A0021176856
:108FF0006D00BC44374EA14601E0002B41D16346D1
:109000001C6878590131431E98418E429B415B4256
:109010000343002CF1D04C46002B32D1029B2A4A4C
:109020001B88FF1800233B60019B5B799C465B001B
:1090300099466344DB0053445B789B00D05842461A
:10904000D758002F10D00378A34222D0030000226B
:10905000083306E018000833190008390978A142DE
:1090600017D001329742F5D15B469B79002B1CD17A
:109070005A46D189928991421ED2019B59794B005F
:10908000ADE7922300225B00FA50019B05241F6884
:10909000C4E74B466344DB00427853445A7043684C
:1090A000002BE1D001989847DEE7039B0320DF0007
:1090B00000235744BB7070E7039A0020D700574441
:1090C000BB706AE78420002010A30100BCA201004D
:1090D00084200020FE0F0000F0B5DE4657464E46C5
:1090E0004546E0B585B002930EAB91461A780191E2
:1090F00046799046834600F037F9774A77009246E2
:10910000BC19E4005444A578EDB2002D47D10123E9
:10911000A37000F031F96B461A79E2711B8942465F
:10912000A3814B46A36000232371A3715B46627148
:10913000E5815979694A48004318DB0053445B785C
:109140009B00D458664AD35890469C46002B31D099
:109150002378012B10D02300002264468C4608336C
:109160000132A24225D0190008331D00083D2D7898
:10917000012DF5D10C0061464318DB0062785344A1
:109180005A706368002B15D0584698475B4659794A
:10919000544B8A00D358002B13D0002002E000F07B
:1091A000EBF8112005B03CBC90469946A246AB4670
:1091B000F0BD61464B4B8A00D358002BEDD1032400
:1091C00008E0BB19DB0053441B79002B00D17FE082
:1091D00002244800BB190393DB0053441A001232E7
:1091E00002925A469B46030001925B18DB005344EF
:1091F0005B8A92259C46019A002117686D00BC4449
:10920000394EA14601E0002B41D163461C687859D4
:109210000131431E98418E429B415B420343002C27
:10922000F1D04C46002B32D1029B2C4A1B88FF18F0
:1092300000233B60019B5B799C465B00994663443D
:10924000DB0053445B789B00D0584246D758002F30
:1092500010D00378A34222D003000022083306E096
:1092600018000833190008390978A14217D00132D3
:109270009742F5D15B469B79002B1CD15A46D18988
:10928000928991421ED2019B59794B00ADE79223FE
:1092900000225B00FA50019B05241F68C4E74B467F
:1092A0006344DB00427853445A704368002BE1D09A
:1092B00001989847DEE7039B0320DF000023574413
:1092C000BB706FE7039A0020D7005744BB7069E773
:1092D000032448007EE7C0468420002010A301003C
:1092E000BCA2010084200020FE0F0000F0B5002881
:1092F0001EDB1B4A03249446FF2217008308C02666
:10930000C0B20440E4008901A7400A40A2409B008B
:109310006344B6009D59BD432A439A511F23C0217F
:1093200018401E3B83400E4A490053501360F0BD65
:10933000FF240C4A0325944622000F23C0B20540A7
:10934000ED008901AA400C40AC400340083B9B085B
:109350009B006344DE6996433443DC61DEE7C0462C
:1093600000E100E000ED00E072B6024A136801334C
:109370001360704784200020034A1368013B136088
:10938000002B00D162B670478420002003210A48D8
:1093900002680A430260094802680A4302600849F9
:1093A000084A094B9B1A03DD043BC858D050FBDC2C
:1093B0000648804706480047240500405405004001
:1093C0006CA3010000200020682000202182010001
:1093D00021810100FEE7FEE7FEE7FEE7FEE7FEE78C
:1093E000F8B54546DE4657464E460C03E0B54E00FE
:1093F000C90F88460D00610A440F0C43C7001903CA
:109400005800DB0F9B464B0A510F0B43760D400D66
:109410001900D200D84500D1AEE0351A002D00DC8D
:10942000F6E000280FD1134300D1DBE06B1E002BC8
:1094300000D037E1BA1A9742BF41641A7F42E41B59
:109440000126170024E0C64B9E424DD080231B040A
:109450001943382D00DD07E11F2D00DD38E1202004
:10946000431B9A460B0050468340994613004846DA
:10947000EB401843030050468240501E8241E940B1
:109480001A43BA1A611A9742A441170064420C1B8E
:10949000230262D56402650A002D00D1DFE02800B6
:1094A00000F0B0FE0300083B1F2B00DDD2E02022BD
:1094B0003C00D21A9D40D4409F4025439E4200DD8F
:1094C000C4E09E1B731C1F2B00DDF1E0202238003E
:1094D0002900D21AD840914097402C000143781EB1
:1094E0008741DC4000260F437B0709D00F233B4018
:1094F000042B05D03B1DBB42BF417F42E4191F0036
:1095000023022CD5964B01369E4200D19AE0454667
:10951000944BFF081C406007760564020743240B48
:10952000760D00212403230B0C0D8F4A24051C43C8
:109530001440330523435B00ED075B082B433800E1
:1095400019003CBC90469946A246AB46F8BD64461D
:10955000044300D111E2040067467B07C6D14546AB
:109560006007FF080743E4087D4B9E4230D0240388
:109570007605240B760DD4E7331A9A46002B78DD56
:10958000002831D076488642AED0802000040143C6
:109590005346382B00DCE9E00A43511E8A41002182
:1095A000D219BA42BF4109197C4217000C19230293
:1095B000D3D56B4B01369E4200D13AE10120694B75
:1095C0001C407B0807401F43E007074364088BE704
:1095D00023003B4300D1CBE1802212031443240338
:1095E000240B9EE72E007FE70800104300D1B4E073
:1095F000581E002800D0DEE0BA18BA429B41641819
:109600005B42E418170001262302A6D50226D5E7FF
:10961000002D6ED1701C4005400D012800DCF9E0E2
:10962000B81A844687428041E51A40422D1A280222
:1096300000D489E0D71BBA4292411C1B5242A51AA2
:10964000D84629E74546002400276AE7454CF61A24
:109650002C4049E73D002838854000272EE7380098
:1096600000F0D0FD20301DE70A43511E8A41002141
:1096700007E7002B00D0F3E0701C43055B0D012BC6
:1096800000DCADE0364B984200D1D1E0BA18BA42C6
:10969000BF4164187F42E419E70752081743640882
:1096A000060021E72E48854200D193E01D00D0E658
:1096B00029001F3EF140202B00D18DE04022D31A1B
:1096C0009D402F437D1EAF4100240F43002644E7F9
:1096D0002B000800203BD8400300202D00D17DE066
:1096E0004020451BA9400A43511E8A4100211A43CC
:1096F000C7E6002E50D01A4EB04257D080266B429B
:109700009946360434434B46382B00DDD6E01F2BF8
:1097100000DD35E12026F51A2600AE40B2463E00B7
:10972000DE40AC46350056462E436546AF407D1EB2
:10973000AF41DC403743D71BBA4292410C1B524227
:10974000A41A0600D846A3E6644667462C4300D018
:10975000A2E600250026002706E71E00C4E6C04654
:10976000FF070000FFFF7FFFFFFF0F801F2B63DC61
:109770002020C31A080098409C4683465346100098
:10978000D84003005846184363469A40531E9A41F6
:1097900053460243D94003E726003E4306D0EB433D
:1097A0009946002BC7D0944EB042ACD10C001700A4
:1097B0000600D84698E6904B9A450BD08246E7E6DD
:1097C000002800D09EE01800104300D1E9E01C0002
:1097D0001700D846884E87E6002572E7002182E709
:1097E00023003B43002E00D0ABE0002B00D1E7E08C
:1097F0000B00134300D177E6BA18BA42BF41641890
:109800007F42E419230200D4F2E07C4B17001C4095
:10981000060069E620003843002ED1D100285BD134
:109820001C00144300D1A8E01C001700D8465BE6DA
:1098300006000024002797E650460B002038C3405E
:1098400099465346202B00D195E0402350461B1AE1
:1098500099400A43511E8A414B4600211A439FE614
:10986000002E30D126003E4367D0DB439A46002BC2
:109870001CD0614EB04260D05346382B00DD96E0DC
:109880001F2B00DD9FE02026F31A26009E409C46F9
:10989000B34653463E00DE4033005E461E436346F9
:1098A0009F407B1E9F415346DC403743BF18974281
:1098B000924164185242A418060078E627437C1EA1
:1098C000A741002437E74C4EB04236D080265B4299
:1098D00036049A463443CFE71800104300D103E61C
:1098E000B81A84466745AD41E01A6D42401B050237
:1098F00000D42CE6D71BBA4292411C1B5242A41A38
:10990000D846F1E51800104300D163E7F80867076F
:1099100007438020E4080003044208D0DD08054224
:1099200005D1D208590711430F002C00D8467B0FF0
:10993000E4001C43FF00304ED6E50C001700060083
:10994000D2E5002B38D00B00134300D142E7F808D2
:10995000670707438020E40800030442E7D0CB08F0
:109960000342E4D1D208490711430F001C00DEE78F
:1099700000270024D5E500216BE700250027F3E54B
:109980004E462500203EF5404B462E00202B2DD084
:109990004025ED1AAC4027437C1EA74100243743E5
:1099A000C9E6802400252403134E0027DCE5274365
:1099B0007C1EA741002479E70C0017000E4E93E5AA
:1099C0000C00170090E556462300203EF3409946D0
:1099D0005346202B0ED0402356469B1B9C402743CA
:1099E0007C1EA7414B4600241F435FE70024D2E7BB
:1099F0001700B2E50024F2E7FF070000FFFF7FFF3A
:109A0000F0B557464546DE464E46E0B54C000E03DF
:109A100087B0834692461D008046360B640DCF0FFB
:109A2000002C4FD06F4B9C4235D08023420F1B043B
:109A3000F600134333439946C30098466A4B002609
:109A40009C460023644403932B031B0B9B466B0033
:109A5000ED0F50465B0D01955ED0624A934253D0A4
:109A60005A46D1008022400F120402430A43934613
:109A70005246D1005C4A9446002263443800684054
:109A800084460290E41A16430F2E00D9B4E0574BD7
:109A9000B6009B599F460300334399466CD100237F
:109AA0009846023308260393CEE7CB464146039AF5
:109AB0000197022A65D1019B4A4C9C460023002253
:109AC00098466BE00300334399464ED0002E00D1F8
:109AD000BCE1300000F096FB03000B3B1C2B00DDCB
:109AE000ACE11D22D31A5A460100DA4008398E40F3
:109AF0001300334399465B468B40984600233C4C09
:109B00000026241A03939FE751465A46114329D150
:109B1000002293460232B1E7594601431ED05B460C
:109B2000002B00D19EE1584600F06CFB03000B3B7C
:109B30001C2B00DD8FE102005946083A91408B460C
:109B40001D21CB1A5146D9400B0059460B435146B3
:109B50009B469140264B00221B1A8FE700230122CF
:109B60009B468BE75146032288E700239846013342
:109B700004260024039367E70323B14603930C26CE
:109B800062E7032A00D15CE2019B012A00D0E4E1F4
:109B900013409C4600230024002298460021120313
:109BA000130B0A0D12051A432305124C404622409E
:109BB000134362465B00D2075B081343190007B0EA
:109BC0003CBC90469946A246AB46F0BD002380229D
:109BD0009C4612039846034CE0E70023014C002208
:109BE0009846DBE7FF07000001FCFFFF24A301000C
:109BF0000DFCFFFFFFFF0F80D94500D939E100D1EF
:109C000034E1002346464D469A46013C5B460A0E27
:109C10001B021A430B02170C039313041B0C39008D
:109C200028009046019300F061FA0200019B8346F0
:109C30005A4328003900914600F0DEFA350C090439
:109C40000D43A9450DD95B464544013BA84500D9C4
:109C50003AE1A94500D837E102235B429C464544DE
:109C6000E3444B46EB1A39001800049300F03EFA27
:109C7000019B0500434339000498994600F0BCFA63
:109C8000330409041B0C0B43994509D943446A1E4C
:109C9000984500D91AE1994500D817E1023D43449F
:109CA0004A469B1A5A4612042A4303999346100CBB
:109CB0000A0C914609045A46090C4E460D0012043E
:109CC000120C4543059151437243704352190E0CD7
:109CD000B218954203D980256D02AC466044150C3C
:109CE00009041204090C28185218834200D2CEE04D
:109CF00000D1C8E01D1A53469E1AB2459241524205
:109D0000AB1A9A46984500D117E13900180000F0C7
:109D1000EDF9019B0500434339005046049300F0E0
:109D20006BFA04980B04310C1943884209D9414459
:109D30006B1E884500D907E1884200D804E1023D46
:109D40004144049BCB1A18003900049300F0CEF96B
:109D5000019B8246434339000498019300F04CFA7A
:109D600001980B043104090C194388420DD953465C
:109D70004144013B884500D9E8E0884200D8E5E04D
:109D800002235B429C464144E244019B2D04CE1ACF
:109D900051462943059D4F462A000B04080C1B0C15
:109DA0005A4345437B4378435B19170CFB189D428C
:109DB00003D980256D02AC4660441D0C12041B04BF
:109DC000120C28189B18864200D293E000D18EE036
:109DD00001231943A04BE318002B00DC99E04A074C
:109DE00000D09EE05A46D20106D55A469B4B1A40F7
:109DF00080239346DB00E318994A934268DD0123F0
:109E0000029A984C1A400023944698460022C5E6D0
:109E100080224B46120313420AD05B46134206D1FE
:109E20001A431203120BAC4688468E4CB6E64B46DC
:109E30001A431203120BBC468A4CAFE603005A4683
:109E4000283B9A4000239146984657E6584600F032
:109E5000D9F9203040E603005246283B9A400021C1
:109E6000934677E600F0CEF920305FE6884500D2D1
:109E7000C7E64B46DE075D0843465B081E43434684
:109E8000DB079A46C2E60025924500D333E7039EDE
:109E90005946B446E244B245AD416D424544EB18E3
:109EA0000139984507D2984200D97FE000D1BCE043
:109EB0001D1A8B461FE79845FAD1039D5545F2D9E7
:109EC00043468B461D1A16E79B46CAE61500E7E691
:109ED0005A46C90852070A435B0590465C0D5A462C
:109EE0000123029952021940120B8C4656E6002BB0
:109EF00000D16FE746444A1EB04529D91100864279
:109F000000D065E7039A934200D061E762E7012140
:109F100049420120C21A382A21DD029B03409C4697
:109F200038E60F220A40042A00D15BE70A00111D1F
:109F3000914292415242934454E7474BE318002B1D
:109F4000E5DD01225242F2E71D00FAE69A461CE7DF
:109F5000B04239D86ED011003AE702933AE71F2A8F
:109F60003CDC20239B1A0C005846994098404B1E1D
:109F700099415B46D440D340204308431A0043072D
:109F800009D00F230340042B05D00100081D88428F
:109F90009B415B42D21813023AD50123029A012455
:109FA0001A400023944698460022F7E502214942D0
:109FB0008C46039DE344AC46E244AA45AD416D4264
:109FC0004544ED182D1A96E68A1E03994D008D42E0
:109FD000894149424144761803958FE71F2040424A
:109FE000C31A5846D8400300202A28D040205D4696
:109FF000821A954029434A1E9141194307230022A2
:10A000000B4009D00F2300220B400800042BBDD1C8
:10A01000010053075202120BC90819430123884655
:10A020000299002419408C46B8E55245BED88B46AB
:10A03000002560E6039D9D42C6D3110062E700251E
:10A04000D8E780225B4612031A43019B1203120BCE
:10A050009C468846034CA1E5FF030000FFFFFFFE7E
:10A06000FE070000FF07000070B5002830D0C317BE
:10A07000C4185C40C50F200000F0C4F8174B184A04
:10A080001B1AD21A1F2A18DD164AD21A944000222F
:10A0900024035B05240B5B0D0021100024030A0D33
:10A0A000240B12052243104C1B05224013435B0076
:10A0B000ED075B082B43190070BD210091400A0099
:10A0C0000B21081AC4405B052403240B5B0DE3E756
:10A0D0000025002300240022DEE7C0461E04000005
:10A0E0003304000013040000FFFF0F800022430828
:10A0F0008B4274D303098B425FD3030A8B4244D350
:10A10000030B8B4228D3030C8B420DD3FF22090291
:10A1100012BA030C8B4202D31212090265D0030B50
:10A120008B4219D300E0090AC30B8B4201D3CB0346
:10A13000C01A5241830B8B4201D38B03C01A524188
:10A14000430B8B4201D34B03C01A5241030B8B428A
:10A1500001D30B03C01A5241C30A8B4201D3CB0275
:10A16000C01A5241830A8B4201D38B02C01A52415A
:10A17000430A8B4201D34B02C01A5241030A8B425D
:10A1800001D30B02C01A5241CDD2C3098B4201D375
:10A19000CB01C01A524183098B4201D38B01C01AF3
:10A1A000524143098B4201D34B01C01A524103096A
:10A1B0008B4201D30B01C01A5241C3088B4201D319
:10A1C000CB00C01A524183088B4201D38B00C01AC6
:10A1D000524143088B4201D34B00C01A5241411AED
:10A1E00000D20146524110467047FFE701B50020FA
:10A1F00000F006F802BDC0460029F7D076E77047A8
:10A200007047C0461C2101231B04984201D3000C57
:10A2100010391B0A984201D3000A08391B099842D9
:10A2200001D30009043902A2105C40187047C046EF
:10A23000040302020101010100000000000000000F
:10A24000F8B5C046F8BC08BC9E467047F8B5C04695
:10A25000F8BC08BC9E4670470020002001000000AA
:10A26000020000000000680601000000003000400D
:10A2700003000000030000009586010002000000BA
:10A280009586010005000000958601000001000090
:10A29000158A010001020000C588010001020000CA
:10A2A000AD860100030200002185010004030000C7
:10A2B00000000000050400004586010002000000C7
:10A2C000050000000400000003000000030000007F
:10A2D0000300000021850100020000007D8B0100C9
:10A2E0000500000095860100020100007D8B010041
:10A2F00001020000C588010000010000AD870100D7
:10A300000403000000000000050400004586010071
:10A310008CA20100E8A201009CA20100D0A20100D1
:10A3200074A20100F89B0100DA9B0100949B0100DC
:10A33000B29A0100949B0100CC9B0100949B010008
:10A34000B29A0100DA9B0100DA9B0100CC9B01006C
:10A35000B29A0100AA9A0100AA9A0100AA9A0100E1
:04A36000109E01004A
:08A36400BCDDFF7F01000000D9
:10A36C0000000000000000000000000000000000E1
:10A37C0000000000000000000000000000000000D1
:10A38C0000000000000000000000000000000000C1
:10A39C0000000000000000000000000000000000B1
:10A3AC0000000000000000000000000000000000A1
:10A3BC000000000000000000000000000000000091
:08A3CC00E9800100C1800100DD
:040000031000938DC9
:00000001FF
